:020000040800F2
:10000000F0040020650100086D0100086F01000880
:10001000710100087301000875010008000000006C
:100020000000000000000000000000007701000850
:1000300079010008000000007B0100083B1800085F
:100040007F0100087F0100087F0100087F01000890
:100050007F0100087F0100087F0100087F01000880
:100060007F0100087F0100087F0100087F01000870
:100070007F0100087F0100087F0100087F01000860
:100080007F0100087F0100087F0100087F01000850
:100090007F0100087F0100087F0100087F01000840
:1000A0007F0100087F0100087F0100087F01000830
:1000B0007F0100087F0100087F0100087F01000820
:1000C0007F0100087F0100087F0100087F01000810
:1000D0007F0100087F0100087F0100087F01000800
:1000E0007F0100087F0100087F0100080000000078
:1000F0000000000000000000000000000000000000
:1001000000000000000000007F0100087F010008DF
:100110007F0100087F0100087F0100087F010008BF
:100120007F0100087F0100087F0100087F010008AF
:100130007F0100087F0100087F0100087F0100089F
:100140007F0100087F0100087F0100087F0100088F
:10015000DFF80CD000F036F800480047751E0008A4
:10016000F00400200648804706480047FEE7FEE707
:10017000FEE7FEE7FEE7FEE7FEE7FEE7FEE7FEE757
:10018000C918000851010008421C10F8011B002981
:10019000FBD1801A704730B50B4601460020202263
:1001A000012409E021FA02F59D4205D303FA02F584
:1001B000491B04FA02F52844151EA2F10102F1DCE4
:1001C00030BD0000064C074D06E0E06840F001033A
:1001D00094E8070098471034AC42F6D3FFF7BCFF11
:1001E0006C2200088C22000831B500F0EDF80446BE
:1001F00000F0EAF80099001B8842F9D338BD0000EE
:100200002DE9F84FDFF890A100220AF1040B144603
:1002100001274FF00F090BF1040E00BF0B6807FA1E
:1002200004F52B40AB4274D1DFF870C14E68A6EBE9
:100230000C0866452BD00DDC032E34D005DC36B31C
:10024000012E19D0022E2FD11BE0112E16D0122E06
:100250002AD119E0B8F5881F19D006DCB8F5803F1F
:1002600015D0B8F5801F1FD111E0B8F5001F0ED0D2
:10027000B8F5041F18D10AE0CA6815E0CA68121D53
:1002800012E0CA6808320FE0CA680C320CE08A68D3
:100290002AB1012A4FF0080203D0456104E004228C
:1002A00002E0056100E00022FF2B01D8064601E0D4
:1002B00000F104064FEA840501D9A5F12005D6F81E
:1002C00000C009FA05F82CEA080C02FA05F54CEA18
:1002D000050CC6F800C04D68ED0057D5304DAE692D
:1002E00046F00106AE61AD6924F0030605F0010594
:1002F00000952C4D06EB050CDCF80850A6074FEADC
:10030000167809FA08F6B543274EB04202D1002606
:1003100010E03BE0254EB04201D101260AE0244E18
:10032000B04201D1022605E0224EB04201D103269F
:1003300000E0042606FA08F62E43CCF808604D6863
:10034000DAF80060ED03554601D51E4300E09E43F8
:100350002E604D68DBF80060AD035D4601D51E439D
:1003600000E09E432E604D68DEF80060ED027546A9
:1003700001D51E4300E09E432E604D68AD020E4D38
:100380002E6801D51E4300E09E432E60641C102C95
:10039000FFF444AFBDE8F88F0004014000001110E5
:1003A000001002400000014000080140000C014024
:1003B00000100140001401400C0401400AB1016129
:1003C00070470904FBE7000001480068704700001F
:1003D0000000002002480168491C016070470000CD
:1003E00000000020074810B5016841F010010160CD
:1003F000032000F051F8002000F006F800F016F895
:10040000002010BD0020024010B5044600F09AF90B
:100410004FF47A71B0FBF1F001F097F80022214619
:10042000501E00F019F8002010BD0000094808B562
:10043000816941F001018161806900F00100009053
:10044000032000F029F80022BDE808401146501EA4
:1004500000F002B800100240F0B40E4B1B680C46CE
:10046000C3F30223C3F10705042D00D90425191D88
:10047000072901D2002300E0DB1E012606FA05F160
:10048000491E214099409E40761E16403143F0BCE3
:1004900001F064B90CED00E0064900F007020868BD
:1004A0004FF6FF03184040EA0220034A1043086059
:1004B000704700000CED00E00000FA052DE9F04760
:1004C000DFF8789205460E46D9F80000022300F0C6
:1004D0000707012041044206994C41F28838B7428F
:1004E00071D2D9F800C02CF0070C4CEA060CC9F800
:1004F00000C0D9F8007007F00707B7426FD12E7817
:10050000B60705D56668AF6826F0F0063E4366601C
:100510002E78F60756D06E68012E0BD0022E1ED014
:1005200093FAA3F1B1FA81F141F02001490924D0F5
:10053000216823E091FAA1F2B2FA82F242F020029D
:10054000520901D0226800E0626A91FAA1F1B1FA81
:1005500081F101F01F018840024240D017E092FA79
:10056000A2F1B1FA81F141F02001490901D02168DD
:1005700000E0616A92FAA2F202E0616A93FAA3F2E1
:10058000B2FA82F202F01F029040014227D0606866
:1005900020F0030030436060FFF716FF06466868EE
:1005A000012809D00228474613D01EE0FFF70CFFB0
:1005B000801BB84201D992E047466068C0F38100D1
:1005C0000128F3D1A1E015E0FFF7FEFE801BB84241
:1005D00073D86068C0F381000228F5D195E092E0FD
:1005E000FFF7F2FE801BB84279D8606810F00C0F5C
:1005F000F6D18AE02F78BF0707D56768D5F808C01D
:1006000027F0F00747EA0C0767602F78FF076DD0E7
:100610006F68012F0BD0022F1ED093FAA3F1B1FA0D
:1006200081F141F02001490924D0216823E091FAA9
:10063000A1F2B2FA82F242F02002520901D02268FD
:1006400000E0626A91FAA1F1B1FA81F101F01F01B3
:100650008840024257D017E092FAA2F1B1FA81F134
:1006600041F02001490901D0216800E0616A92FA55
:10067000A2F202E0616A93FAA3F2B2FA82F202F005
:100680001F02904001423ED0606820F003003843D2
:100690006060FFF799FE07466868012807D00228C6
:1006A00011D01FE0FFF790FEC11B414517D86068CD
:1006B000C0F381000128F5D118E010E0FFF784FEB7
:1006C000C11B41450BD86068C0F381000228F5D1F9
:1006D0000CE000BFFFF778FEC11B414502D90320A3
:1006E000BDE8F087606810F00C0FF3D1D9F8001066
:1006F00021F007013143C9F80010D9F8000000F0DB
:100700000700B04201D00120EAE72878400705D56C
:100710006068E96820F4E0600843606028780007BA
:1007200006D56068296920F4605040EAC100606025
:100730000020FFF769FE0020D2E700000020024001
:100740000010024000B500F043F808494968F02263
:1007500092FAA2F201F0F001B2FA82F2D140044A18
:10076000515CC8400349086000BD00000010024011
:100770005C2200080800002000B5FFF7E3FF0749EE
:1007800049684FF4E06292FAA2F201F4E061B2FA31
:1007900082F2D140024A515CC84000BD00100240C4
:1007A0005C22000800B5FFF7CDFF074949684FF408
:1007B000605292FAA2F201F46051B2FA82F2D14090
:1007C000024A515CC84000BD001002405C22000893
:1007D000F0B52DA28AB007CA8DE807002DA103ACA1
:1007E0000FC984E80F002F494B682F4803F00C0213
:1007F000042A02D0082A02D02C480AB0F0BD4FF4D7
:10080000701595FAA5F403F47012B4FA84F4E2407A
:100810006E461DF80220DB0333D5CB6A0F2494FA11
:10082000A4F403F00F03B4FA84F4E34003ACE45CF3
:10083000CB6ADB0316D5CB6AF02797FAA7F703F04C
:10084000F003B7FA87F7C96AFB40AF1297FAA7F728
:1008500001F47061B7FA87F7F9405B1CB0FBF3F065
:10086000891C4843B0FBF4F095FAA5F350434FF4CC
:100870005011B3FA83F3D940715C9142BDD1400865
:10088000BBE70B485043B8E700000405060708091A
:100890000000000D0102030405060708090A0B0CFD
:1008A0000D0E0F100010024040787D0100127A00FA
:1008B00000093D002DE9F84F04460078FC4DC007C3
:1008C0004FF0010625D068687704C0F38100012845
:1008D00007D06868C0F3810002281BD16868C00394
:1008E00018D597FAA7F0B0FA80F040F02000400940
:1008F00001D0286800E0686A97FAA7F1B1FA81F19F
:1009000001F01F0106FA01F1084202D0A068002898
:1009100076D081E0286820F480302860286820F4B0
:1009200080202860FFF750FD804605E0FFF74CFD72
:10093000A0EB080064287DD897FAA7F0B0FA80F001
:1009400040F02000400901D0286800E0686A97FA6A
:10095000A7F1B1FA81F101F01F0106FA01F1084295
:10096000E4D1A068B0F5803F0BD010B1B0F5A02F56
:1009700011D0286820F480302860286820F4802076
:1009800002E0286840F480302860A06820B3FFF7B8
:100990001BFD80460AE0286840F480202860F0E7CC
:1009A000FFF712FDA0EB08006428C4D897FAA7F05F
:1009B000B0FA80F040F02000400901D0286800E043
:1009C000686A97FAA7F1B1FA81F101F01F0106FAFE
:1009D00001F10842E4D01FE0FFF7F6FC804605E095
:1009E000FFF7F2FCA0EB08006428A4D897FAA7F060
:1009F000B0FA80F040F02000400902D0286801E001
:100A0000B8E0686A97FAA7F1B1FA81F101F01F0125
:100A100006FA01F10842E3D12078A64F80074FF093
:100A200002084FF000095BD568684FF0F80B10F032
:100A30000C0F00E01DE207D06868C0F381000228B7
:100A40001BD16868C00318D498FAA8F0B0FA80F0F7
:100A500040F02000400901D0286800E0686A98FA58
:100A6000A8F1B1FA81F101F01F0106FA01F1084283
:100A70002BD0606901287DD127E0606988B396FAA0
:100A8000A6F0B0FA80F047F82060FFF79DFC8246A0
:100A900006E000BFFFF798FCA0EB0A00022884D80C
:100AA00098FAA8F0B0FA80F040F02000400901D098
:100AB000286800E0686A98FAA8F1B1FA81F101F0BB
:100AC0001F0106FA01F10842E4D028689BFAABF254
:100AD000A169B2FA82F220F0F80091400843286040
:100AE00025E0FFE796FAA6F1B1FA81F147F82190E7
:100AF000FFF76AFC824605E0FFF766FCA0EB0A0000
:100B00000228CCD898FAA8F0B0FA80F040F0200083
:100B1000400901D0286800E0686A98FAA8F1B1FAA3
:100B200081F101F01F0106FA01F10842E4D12078B9
:100B300000076FD5E069C0B396FAA6F0B0FA80F06E
:100B400007EB8000C0F88064FFF73EFC824605E0BA
:100B5000FFF73AFCA0EB0A000228A0D898FAA8F107
:100B6000B1FA81F141F060014046B6EB511F02D16C
:100B700029680CE0A0E190FAA0F1B1FA81F141F00E
:100B80006001B0EB511F01D1296A00E0696A98FA4F
:100B9000A8F0B0FA80F000F01F0206FA02F001425D
:100BA000D6D00120FFF720FB34E0FFE796FAA6F14C
:100BB000B1FA81F107EB8101C1F88094FFF704FCE1
:100BC000824605E0FFF700FCA0EB0A00022898D857
:100BD00098FAA8F1B1FA81F141F060014046B6EB14
:100BE000511F01D129680BE090FAA0F1B1FA81F10F
:100BF00041F06001B0EB511F01D1296A00E0696A40
:100C000098FAA8F0B0FA80F000F01F0206FA02F09D
:100C10000142D7D12078400773D5E86940F0805071
:100C2000E861E869DFF890B000F080500090DBF8F0
:100C3000001041F48071CBF80010FFF7C5FB82462D
:100C400006E000BFFFF7C0FBA0EB0A00642884D8D1
:100C5000DBF80000C005F5D5286A20F00100286205
:100C6000286A20F004002862FFF7AEFB834641F2B9
:100C7000883A05E0FFF7A8FBA0EB0B015145A6D889
:100C800098FAA8F1B1FA81F141F040014046B6EB83
:100C9000511F01D1296812E090FAA0F1B1FA81F157
:100CA00041F04001B0EB511F08D1296A07E0000074
:100CB000001002400000424200700040696A98FA49
:100CC000A8F0B0FA80F000F01F0006FA00F0014230
:100CD000D0D1206901280AD008B1052812D0286A8D
:100CE00020F001002862286A20F0040002E0286A4F
:100CF00040F001002862206998B3FFF765FB834646
:100D00000CE05BE0286A40F004002862EFE700BFD7
:100D1000FFF75AFBA0EB0B01514598D898FAA8F1C0
:100D2000B1FA81F141F040014046B6EB511F01D1CB
:100D300029680BE090FAA0F1B1FA81F141F040018D
:100D4000B0EB511F01D1296A00E0696A98FAA8F056
:100D5000B0FA80F000F01F0206FA02F00142D7D08C
:100D60002CE0FFE7FFF730FB834605E0FFF72CFBA5
:100D7000A0EB0B0151457CD898FAA8F1B1FA81F1AA
:100D800041F040014046B6EB511F01D129680BE00C
:100D900090FAA0F1B1FA81F141F04001B0EB511F9E
:100DA00001D1296A00E0696A98FAA8F0B0FA80F0E7
:100DB00000F01F0206FA02F00142D7D1E16AA1B3A6
:100DC0006868C00307D56868C0F38100022802D1B3
:100DD000E86AC00370D44FF080604FF0006B0229C6
:100DE0000DD0E96A21F48031E96290FAA0F0B0FAFE
:100DF00080F047F82090FFF7E7FA804670E0296816
:100E0000C90005D5E96A626B01F0F001914253D146
:100E10004FF0806090FAA0F0B0FA80F047F8209090
:100E2000FFF7D2FA8246D84606E06EE0FFF7CCFA2A
:100E3000A0EB0A0064281CD898FAA8F0B0FA80F059
:100E400040F02000400901D0286800E0686A98FA64
:100E5000A8F1B1FA81F101F01F0106FA01F108428F
:100E6000E4D1E86A616B20F0F0000843E862E86AC8
:100E700000E082E0216B20F470600843E8624FF0EC
:100E8000806090FAA0F0B0FA80F047F82060FFF799
:100E90009BFA824606E000BFFFF796FAA0EB0A0035
:100EA00064286AD898FAA8F0B0FA80F040F02000E0
:100EB000400902D0286801E0A7E0686A98FAA8F122
:100EC000B1FA81F101F01F0106FA01F10842E3D005
:100ED0001BE000BFFFF778FAA0EB080064284CD8AD
:100EE0009BFAABF0B0FA80F040F02000400901D04E
:100EF000286800E0686A9BFAABF1B1FA81F101F071
:100F00001F0106FA01F10842E4D1206AA0B3696822
:100F1000C1F38101022978D002284FF080714FF08F
:100F2000007A48460AD091FAA1F1B1FA81F147F866
:100F30002100FFF749FA074654466FE08B4691FAC5
:100F4000A1F1B1FA81F1B94647F82100FFF73CFA67
:100F50008046574606E000BFFFF736FAA0EB0800D0
:100F6000022858D897FAA7F0B0FA80F040F0200095
:100F7000400903D0286802E065E04CE0686A97FA0F
:100F8000A7F1B1FA81F101F01F0106FA01F108425F
:100F9000E2D1606AB0F5803F09D1E86A6168084330
:100FA000E862E86AE16820F00F000843E862D4E9EB
:100FB00009010843696821F47411084368609BFAC9
:100FC000ABF0B0FA80F049F82060FFF7FDF9044675
:100FD00005E000BFFFF7F8F9001B02281BD897FABD
:100FE000A7F0B0FA80F040F02000400901D0286856
:100FF00000E0686A97FAA7F1B1FA81F101F01F01E8
:1010000006FA01F10842E5D01DE01EE0FFF7DCF929
:10101000C01B022802D90320BDE8F88F94FAA4F07F
:10102000B0FA80F040F02000400901D0286800E0CC
:10103000686A94FAA4F1B1FA81F101F01F0106FA8D
:1010400001F10842E2D10020E6E70120E4E790F850
:101050005100704710B5040003D094F8510010B14E
:1010600004E0012010BD204600F038F8022084F88A
:1010700051002068016821F040010160D4E90101BC
:101080000843D4E903121143084361690843218BE3
:1010900001F400710843E1690843216A0843A16A29
:1010A000084321680860A069042101EA1040616AD0
:1010B0000843216848602168E06A08612068C169C6
:1010C00021F40061C16104490020087060650120BD
:1010D00084F85100002010BD0400002010B5006805
:1010E000124986B088421ED11148C16941F480413D
:1010F000C161C0690F4C00F4804004904FF420405F
:101100000090022001900320039069462046FFF7DB
:1011100077F800214FF48040CDE900010291694643
:101120002046FFF76DF806B010BD00000038004003
:1011300000100240000C01402DE9F843044690F8ED
:1011400051009846012870D139B332B394F8500059
:1011500001286AD0012684F85060122084F85100DA
:10116000002565652163A286E286E564A564A56322
:10117000A587E587A06A7703B84209D1206801688E
:1011800021F4005101602068016841F400510160C0
:10119000A068B0F5004F03D007E00120BDE8F88358
:1011A0002068016841F480410160206801684906B7
:1011B00003D4016841F040010160E06800286068E4
:1011C00004D0D8B1E08E012818D021E010B1E08E13
:1011D000012808D1206B411C216321680078C86078
:1011E000E08E401EE0860004000C1FD04346002223
:1011F0000221204600F0D2FAA8B9EBE7206B216863
:101200000088C860206B801C2063E08E401EE08652
:101210000004000C0AD0434600220221204600F0C0
:10122000BDFA0028EAD00320B8E726E0A06AB84259
:1012300004D12068016841F48051016043460022D6
:101240000221204600F0AAFA30B94346012280214B
:10125000204600F0A3FA20B1606D40F010006065F8
:10126000E1E7A06818B92068C1688068009084F838
:10127000516084F85050002090E702208EE72DE95D
:10128000F8430025DDF820800446ADF8005090F8C2
:101290005100012803D094F8510022287DD169B172
:1012A00062B15BB194F85000012876D0012684F831
:1012B000506094F85100012803D005E00120BDE8FA
:1012C000F883322084F851006565A263A387E38721
:1012D0002163A386E386A564E564A06A4FF4005702
:1012E000B84209D12068016821F4005101602068EA
:1012F000016841F40051016020680168490603D487
:10130000016841F040010160E0684FF48271B0F57E
:10131000006F606807D0002867D088426ED1E08EE9
:10132000012862D06AE020B188420CD1E08E012809
:1013300009D1206B21680088C860206B801C206365
:10134000E08E401EE086E08E80B9A06AB84244D1AB
:101350002068016841F4805101603EE02068C06867
:10136000A16B0880A06B801CA0639EE04346002216
:101370000221204600F012FA002874D1206B216867
:101380000088C860206B801C2063E08E401E000433
:10139000000CE08609D1A06A00E0C7E0B84204D1A1
:1013A0002068016841F48051016043460022012118
:1013B000204600F0F3F900286FD12068C068A16BC7
:1013C0000880A06B801CA063E08F401EE087E08E49
:1013D0000028CBD1606800286AD143460022012151
:1013E000204600F0DBF9F0BBB8E7206B411C21631D
:1013F00021680078C860E08E401EE086E08E98B9D3
:10140000A06AB84204D12068016841F480510160AB
:10141000434600220121204600F0C0F918BB206895
:10142000C068A16B087040E04346002202212046BC
:1014300000F0B4F9B8B9206B411C21632168007831
:10144000C860E08E401E0004000CE08607D1A06A50
:10145000B84204D12068016841F480510160002243
:101460004346012100E018E0204600F097F9A0B9BA
:101470002068C168A06B421CA2630170E08F401E0F
:10148000E087E08E0028CFD1606888B9434600220B
:101490000121204600F082F908B103200FE72068FF
:1014A000C168A06B421CA2630170E08F401EE08700
:1014B000A06AB84210D1434600220121204600F024
:1014C0006DF918B1606D40F002000FE02068C0684F
:1014D000ADF80000BDF800004346012280212046FF
:1014E00000F05CF920B1606D40F010006065D4E759
:1014F00084F85160A06AB84214D120688168C94359
:10150000C9060FD4616D41F002016165016821F4E3
:10151000005101602068016841F40051016084F8C5
:101520005050CBE684F850500020C8E60220C6E6B2
:101530004FF0E0210428086903D020F0040008617E
:10154000704740F00400FAE7704710B5401EB0F154
:10155000807F01D3012010BD4FF0E02460610F2196
:10156000601700F0FBF80020A06107202061002038
:1015700010BD10B5FFF7E8FF10BD70B5040004D032
:1015800094F83900002510B106E0012070BD84F800
:101590003850204600F020F8022084F839002068F6
:1015A000C16821F40051C160204600F0B7F92068FD
:1015B000016921F4904101612068416921F02A010B
:1015C00041612068C16841F40051C160E5630120B8
:1015D00084F83900002070BD10B50068134986B04A
:1015E000884221D11248C16941F40031C161C0690A
:1015F000104C00F400300490202000900220019054
:101600000320039069462046FEF7FAFD00214020A2
:10161000CDE90001029169462046FEF7F1FD06483A
:10162000416841F00801416006B010BD004400402F
:101630000010024000140140000001402DE9F04775
:10164000044690F8390099460D46012801D0222819
:1016500058D12DB322B394F83800012852D0012676
:1016600084F838600027E76394F8390022281AD0FC
:101670005FF0120084F83900A284E2844FF48058AD
:10168000E08C4B46401EE084A0684FF000024045CD
:101690004FF08001204613D100F0B0F908BB04E000
:1016A0000120BDE8F0873220E4E728882168C0F3F4
:1016B00008004860206908B16D1C08E0AD1C06E018
:1016C00000F09CF968B9216815F8010B4860E08CBE
:1016D0000028D5D14B4600224021204600F08EF94B
:1016E00008B10320DDE794F83900322806D084F8E9
:1016F000396000BF84F838700020D2E7222084F8D7
:101700003900F7E70220CCE70B480A494FF4007292
:1017100001604FF48271416000218160C16001610C
:10172000C0E90512C1610162416281620A21C162A0
:10173000FFF790BC003800401400002001B564237E
:10174000012269460448FFF7F7FC0348FFF77FFCD6
:101750002228FAD008BD0000140000200907090E55
:10176000002806DA00F00F0000F1E02080F8141DD8
:10177000704700F1E02080F80014704710B504466F
:1017800000F01CFD21460B2000F05EFA00F00CFD7D
:1017900001490120087010BD0C0000202DE9F04720
:1017A0001D4690460E460446FEF70EFE07465FEACB
:1017B00008004FF000084FF4005A4FF0010926D0FE
:1017C00034E0681C23D025B1FEF7FEFDC01BA84203
:1017D0001DD92068416821F0E0014160206801685E
:1017E00021F040010160A06A504509D120680168DC
:1017F00021F4005101602068016841F4005101604A
:1018000084F8519084F850800320BDE8F087206868
:10181000806836EA0000D4D10DE0681C06D0002DA7
:10182000D7D0FEF7D1FDC01BA842D2D8206880686F
:1018300036EA0000F1D00020E7E710B5FEF7CAFD58
:10184000BDE81040FFF795BE30B593B001252804E0
:101850000421CDE902010224CDE90050CDE9084080
:101860004FF4E010CDE90A044FF4C0600C90402022
:101870000D906846FFF71EF80520CDE90E04002004
:101880006102CDE91001129002210EA8FEF716FEAA
:10189000FEF758FF4FF47A71B0FBF1F0FFF755FEF9
:1018A0000420FFF745FEE00690FAA0F00549B0FAE3
:1018B00080F041F8205000221146501EFEF7CCFD6A
:1018C00013B030BD000042421048016841F00101F0
:1018D000016041680E4A1140416001680D4A1140A3
:1018E0000160016821F480210160416821F4FE015A
:1018F0004160016821F0A05101604FF47F018160D7
:101900000021C1620449C003086070470010024012
:101910000000FFF0FFFFF6FE08ED00E02DE9F041CA
:10192000044600680169E26821F4405111430161F5
:101930002169A0680843616908432168CA6841F2C7
:101940000C639A430243CA6020684169A26921F48A
:101950004071114341612849206864254FF03208E5
:10196000884218D1FEF71EFF00EBC00101EB00100A
:1019700061688900B0FBF1F0B0FBF5F6FEF712FFED
:1019800000EBC00101EB001061688900B0FBF1F7CA
:10199000FEF708FF17E0FEF7EFFE00EBC00101EBDA
:1019A000001061688900B0FBF1F0B0FBF5F6FEF7BE
:1019B000E3FE00EBC00101EB001061688900B0FBA1
:1019C000F1F7FEF7D9FE00EBC00101EB00106168F2
:1019D0008900B0FBF1F0B0FBF5F06FF0180148435F
:1019E00007EB800108EB0110B0FBF5F0216866F30E
:1019F0001F108860BDE8F081003801402DE9F047F4
:101A00001D4690460E460446FEF7DEFC07465FEA9A
:101A100008004FF000094FF0010808D030E0681CC2
:101A200005D095B1FEF7D0FCC01BA8420DD82068A8
:101A3000006836EA0000F2D127E0681C20D025B10A
:101A4000FEF7C2FCC01BA8421AD92068C16821F069
:101A50008001C1602068C16821F02001C160206858
:101A6000C16821F48071C1602068416921F00101E1
:101A7000416184F8398084F838900320BDE8F0870C
:101A80002068006836EA0000D7D00020F6E70000A2
:101A90000FB4084B10B504A902AA039800F01CF873
:101AA000044602A9002000F0C1F8204610BC5DF8F1
:101AB00014FB00002D1C000802E008C8121F08C11A
:101AC000002AFAD170477047002001E001C1121FBF
:101AD000002AFBD1704700002DE9FF4F89B09B46DB
:101AE0000446002506E025280BD05A460B9990475E
:101AF000641C6D1C20780028F5D10DB02846BDE887
:101B0000F08F0027B8460122474900E0074314F848
:101B1000013F203B02FA03F00842F7D120782E283B
:101B200019D114F8010F47F004072A280ED06FF0DE
:101B30002F022078A0F1300109290CD808EB880188
:101B400002EB410100EB0108641CF2E70A98641CF7
:101B500050F8048B0A9020780028CED0642808D052
:101B6000692806D075281ED05A460B9990476D1CDF
:101B700058E00A994FF00A0901C90A91002802DACF
:101B800040422D2102E0390504D52B218DF820108B
:101B9000012103E0F90704D02021F7E78A4608AEC7
:101BA0000DE00021FAE70A994FF00A0901C90A91EC
:101BB000F7E74946FEF7EFFA303106F8011D002835
:101BC000F7D1ADEB060000F12009780701D44FF002
:101BD0000108C84502DDA8EB090000E000208046AE
:101BE000002706E008A85A46C05D0B9990476D1C77
:101BF0007F1C5745F6DB04E030205A460B9990478E
:101C00006D1CB8F10001A8F10108F5DC05E016F83B
:101C1000010B5A460B9990476D1CB9F10001A9F1CF
:101C20000109F4DC641C65E7092801000A68531CFB
:101C30000B6010707047801EC1B2481E022802D887
:101C4000032000F0F9BA70472DE9F04107460E462F
:101C500000240D4602E0641CE4B26D1C28780028C4
:101C6000F9D1E01E02280AD82046FFF7E4FF2246F9
:101C70003146384600F0ACFA0120BDE8F081002082
:101C8000FBE700002DE9F041224C207848B300F03A
:101C9000A3F8214D28680168C9434906FBD41D49B2
:101CA0004FF4FA7633460122091D1B48FFF7C6FCA4
:101CB0004FF496773846FEF797FA0021207900F026
:101CC00031F888B128680168C9434906FBD4334616
:101CD000042212A11048FFF7B1FC3846FEF784FA3F
:101CE0000FE0202060710CE000F05EF920280FD991
:101CF00000F05EF800F070F80021207900F012F892
:101D000010B10020BDE8F0814021072000F094FAD6
:101D10000120F7E70C0000206C00002044444444FC
:101D20000000000001228A40824301D00020704759
:101D300001207047012211020148FEF73FBB00005D
:101D40000014014000224FF480710148FEF736BBB9
:101D50000014014010B5044600F030FA7F2C00D981
:101D60007F242146052000F067FABDE8104000F00E
:101D70001BBA0000012251020148FEF71FBB000000
:101D80000014014000224FF400710148FEF716BB19
:101D90000014014000F03F011C2000F04DBA014644
:101DA000022000F049BA00F007011D2000F044BAFB
:101DB00010B5FFF7E7FFE220FFF7C0FCBDE81040D9
:101DC000FFF7D8BF10B5FFF7DDFFE120FFF7B6FC46
:101DD000BDE81040FFF7CEBF10B5172000F064F942
:101DE0000149087110BD00000C00002010B5FFF77C
:101DF000DFFFFFF7E7FF0320FFF7CCFF0520FFF72A
:101E0000D2FF2F21042000F017FA7021072000F0E4
:101E100013FA00F0E7F80E4C20786178084201D000
:101E2000032003E030EA010207D00220FFF7B7FFEA
:101E300000F0E6F8FFF77EFF06E0814304D00120C2
:101E4000FFF7ADFF00F0E7F80120A07010BD000023
:101E50000C00002010B5FFF78DFFFFF773FF04485B
:101E600000218171417101704170817010BD0000CD
:101E70000C0000208EB0FEF7B5FAFFF7E5FC4248F3
:101E8000816941F008018161816901F008010C91CB
:101E9000816941F020018161806908A900F020007A
:101EA0000C904FF4607008900120099003200B9073
:101EB0003648FEF7A5F9FFF727FC364C34480C21CD
:101EC00020604FF4E13060600020A060E060C4E971
:101ED0000401A061E0612046FFF74FFBFFF7BAFF66
:101EE00041F28830FEF780F93C20FFF733FF1E20D7
:101EF000FFF730FF20680168C9434906FBD44FF45F
:101F0000FA763346042224A12248FFF797FB4FF4C8
:101F100096752846FEF768F9052000F0C5F8206898
:101F20000168C9434906FBD4334604221AA1194863
:101F3000FFF784FB2846FEF757F919A0FFF71EFCB0
:101F4000032000F0B1F80B2000F0AEF8052000F0FF
:101F5000ABF8FFF74BFF00BFFFF794FE0028FBD064
:101F600000F064F8684600F0DFF821680A68D243A0
:101F70005206FBD482B2334669460648FFF75EFB41
:101F80002846FEF731F9E7E700100240001401404F
:101F9000004400406C000020414243440000000027
:101FA00041424344450000000EB5FFF7EBFE6020C0
:101FB000FFF7C4FB00208DF8080064200090012387
:101FC00001AA02A90648FFF75AF90548FFF73FF8AA
:101FD0002228FAD0FFF7CEFE9DF804000EBD0000C7
:101FE0001400002010B5002000F05EF840F002015F
:101FF000002000F021F9BDE810402D20FEF7F4B8D4
:1020000010B5002000F050F840F00101BDE810408C
:10201000002000F011B910B5002000F045F800F0E4
:10202000FE01BDE81040002000F006B92DE9FC419A
:102030001A48017899B100244471194E204634544D
:10204000401C2028FBDBFFF7AFFF0746FFF79AFE97
:102050006120FFF773FB00254FF0640814E0202196
:1020600041710020BDE8FC818DF804407219012304
:1020700001A90C48CDF80080FFF701F90948FEF7E7
:10208000E6FF2228FAD06D1CBD42EDDBFFF772FEA1
:102090004021072000F0D0F80120E3E70C000020E9
:1020A000AC0000201400002010B58AB00446FFF7F1
:1020B00069FE04F01F008DF824006424012301AAA6
:1020C00009A917480094FFF7DAF81548FEF7BFFF93
:1020D0002228FAD000208DF82400012301AA09A9A2
:1020E0000F480094FFF7CBF80D48FEF7B0FF222809
:1020F000FAD00C4800680168C9434906FBD44FF484
:10210000FA73012201A90748FFF798FA4FF4967075
:10211000FEF76AF8FFF72EFE9DF804000AB010BD26
:10212000140000206C00002030B5194C89B000224A
:102130006379184909E0D5184D5D25B38554657953
:10214000521C6D1C6571202A02DA6579202DF2D3AC
:1021500011A16846FFF79CFC124800680168C9435A
:102160004906FBD46846FEF70FF882B24FF4FA73C3
:1021700069460C48FFF762FA4FF49670FEF734F8A0
:10218000607909B030BD6079401C6071E0E7000003
:102190000C000020AC0000205B2025642025645D3D
:1021A000000000006C0000200348817800780142A4
:1021B00001D0FFF7BFBD70470C00002003488178B5
:1021C0000078014201D0FFF7BDBD70470C00002030
:1021D0007CB515460E460446FFF7D4FD04F01F00FB
:1021E00040F020008DF80400642000900123104A84
:1021F00001A91048FFF743F80E48FEF728FF2228F0
:10220000FAD000240FE0305D8DF804006423012231
:1022100001A90848FEF790FF0648FEF718FF22289C
:10222000FAD0641CE4B2AC42EDD3FFF7A3FD7CBD51
:102230000F0000201400002070B50D460446FFF783
:10224000A1FD04F01F0040F02000FFF777FA2846B8
:10225000FFF774FABDE87040FFF78CBD0000000086
:102260000102030401020304060708098C22000886
:102270000000002014000000B81A0008A022000886
:1022800014000020DC040000C81A00080000000050
:102290000000000000A24A0400000000000000004E
:04000005080001519D
:00000001FF
